{
  "contractName": "Wrapper",
  "abi": [
    {
      "constant": true,
      "inputs": [
        {
          "name": "x",
          "type": "bytes14"
        },
        {
          "name": "byteInd",
          "type": "uint256"
        }
      ],
      "name": "getInt8FromByte",
      "outputs": [
        {
          "name": "",
          "type": "int8"
        }
      ],
      "payable": false,
      "stateMutability": "pure",
      "type": "function"
    },
    {
      "constant": true,
      "inputs": [
        {
          "name": "reserve",
          "type": "address"
        },
        {
          "name": "tokens",
          "type": "address[]"
        }
      ],
      "name": "getBalances",
      "outputs": [
        {
          "name": "",
          "type": "uint256[]"
        }
      ],
      "payable": false,
      "stateMutability": "view",
      "type": "function"
    },
    {
      "constant": true,
      "inputs": [
        {
          "name": "ratesContract",
          "type": "address"
        },
        {
          "name": "tokenList",
          "type": "address[]"
        }
      ],
      "name": "getTokenIndicies",
      "outputs": [
        {
          "name": "",
          "type": "uint256[]"
        },
        {
          "name": "",
          "type": "uint256[]"
        }
      ],
      "payable": false,
      "stateMutability": "view",
      "type": "function"
    },
    {
      "constant": true,
      "inputs": [
        {
          "name": "x",
          "type": "bytes14"
        },
        {
          "name": "byteInd",
          "type": "uint256"
        }
      ],
      "name": "getByteFromBytes14",
      "outputs": [
        {
          "name": "",
          "type": "bytes1"
        }
      ],
      "payable": false,
      "stateMutability": "pure",
      "type": "function"
    },
    {
      "constant": true,
      "inputs": [
        {
          "name": "network",
          "type": "address"
        },
        {
          "name": "srcs",
          "type": "address[]"
        },
        {
          "name": "dests",
          "type": "address[]"
        },
        {
          "name": "qty",
          "type": "uint256[]"
        }
      ],
      "name": "getExpectedRates",
      "outputs": [
        {
          "name": "",
          "type": "uint256[]"
        },
        {
          "name": "",
          "type": "uint256[]"
        }
      ],
      "payable": false,
      "stateMutability": "view",
      "type": "function"
    },
    {
      "constant": true,
      "inputs": [
        {
          "name": "ratesContract",
          "type": "address"
        },
        {
          "name": "tokenList",
          "type": "address[]"
        }
      ],
      "name": "getTokenRates",
      "outputs": [
        {
          "name": "",
          "type": "uint256[]"
        },
        {
          "name": "",
          "type": "uint256[]"
        },
        {
          "name": "",
          "type": "int8[]"
        },
        {
          "name": "",
          "type": "int8[]"
        },
        {
          "name": "",
          "type": "uint256[]"
        }
      ],
      "payable": false,
      "stateMutability": "view",
      "type": "function"
    }
  ],
  "bytecode": "0x6060604052341561000f57600080fd5b610e488061001e6000396000f30060606040526004361061005e5763ffffffff60e060020a60003504166367c33c8081146100635780636a385ae9146100aa5780637c80feff1461015a578063a609f03414610250578063f1838fe4146102b3578063f37f834514610390575b600080fd5b341561006e57600080fd5b61009171ffffffffffffffffffffffffffffffffffff1960043516602435610555565b604051600091820b90910b815260200160405180910390f35b34156100b557600080fd5b61010760048035600160a060020a031690604460248035908101908301358060208082020160405190810160405280939291908181526020018383602002808284375094965061058795505050505050565b60405160208082528190810183818151815260200191508051906020019060200280838360005b8381101561014657808201518382015260200161012e565b505050509050019250505060405180910390f35b341561016557600080fd5b6101b760048035600160a060020a03169060446024803590810190830135806020808202016040519081016040528093929190818152602001838360200280828437509496506106cd95505050505050565b604051808060200180602001838103835285818151815260200191508051906020019060200280838360005b838110156101fb5780820151838201526020016101e3565b50505050905001838103825284818151815260200191508051906020019060200280838360005b8381101561023a578082015183820152602001610222565b5050505090500194505050505060405180910390f35b341561025b57600080fd5b61027e71ffffffffffffffffffffffffffffffffffff1960043516602435610835565b6040517fff00000000000000000000000000000000000000000000000000000000000000909116815260200160405180910390f35b34156102be57600080fd5b6101b760048035600160a060020a0316906044602480359081019083013580602080820201604051908101604052809392919081815260200183836020028082843782019150505050505091908035906020019082018035906020019080806020026020016040519081016040528093929190818152602001838360200280828437820191505050505050919080359060200190820180359060200190808060200260200160405190810160405280939291908181526020018383602002808284375094965061086095505050505050565b341561039b57600080fd5b6103ed60048035600160a060020a03169060446024803590810190830135806020808202016040519081016040528093929190818152602001838360200280828437509496506109fe95505050505050565b60405180806020018060200180602001806020018060200186810386528b818151815260200191508051906020019060200280838360005b8381101561043d578082015183820152602001610425565b5050505090500186810385528a818151815260200191508051906020019060200280838360005b8381101561047c578082015183820152602001610464565b50505050905001868103845289818151815260200191508051906020019060200280838360005b838110156104bb5780820151838201526020016104a3565b50505050905001868103835288818151815260200191508051906020019060200280838360005b838110156104fa5780820151838201526020016104e2565b50505050905001868103825287818151815260200191508051906020019060200280838360005b83811015610539578082015183820152602001610521565b505050509050019a505050505050505050505060405180910390f35b6000600d82111561056557600080fd5b8282600e811061057157fe5b1a60f860020a0260f860020a9004905092915050565b61058f610e0a565b610597610e0a565b60008084516040518059106105a95750595b90808252806020026020018201604052509250600091505b84518210156106c35750600073eeeeeeeeeeeeeeeeeeeeeeeeeeeeeeeeeeeeeeee8583815181106105ee57fe5b90602001906020020151600160a060020a031614156106185750600160a060020a038516316106a1565b84828151811061062457fe5b90602001906020020151600160a060020a03166370a082318760006040516020015260405160e060020a63ffffffff8416028152600160a060020a039091166004820152602401602060405180830381600087803b151561068457600080fd5b6102c65a03f1151561069557600080fd5b50505060405180519150505b808383815181106106ae57fe5b602090810290910101526001909101906105c1565b5090949350505050565b6106d5610e0a565b6106dd610e0a565b6106e5610e0a565b6106ed610e0a565b600080600080600089516040518059106107045750595b9080825280602002602001820160405250965089516040518059106107265750595b90808252806020026020018201604052509550600094505b8951851015610824578a600160a060020a031663e4a2ac628b878151811061076257fe5b9060200190602002015160006040516080015260405160e060020a63ffffffff8416028152600160a060020a039091166004820152602401608060405180830381600087803b15156107b357600080fd5b6102c65a03f115156107c457600080fd5b505050604051805190602001805190602001805190602001805193975091955093509091508490508786815181106107f857fe5b602090810290910101528286868151811061080f57fe5b6020908102909101015260019094019361073e565b509499939850929650505050505050565b6000600d82111561084557600080fd5b8282600e811061085157fe5b1a60f860020a02905092915050565b610868610e0a565b610870610e0a565b610878610e0a565b610880610e0a565b6000865188511461089057600080fd5b855188511461089e57600080fd5b87516040518059106108ad5750595b9080825280602002602001820160405250925087516040518059106108cf5750595b90808252806020026020018201604052509150600090505b87518110156109f05788600160a060020a031663809a9e5589838151811061090b57fe5b9060200190602002015189848151811061092157fe5b9060200190602002015189858151811061093757fe5b9060200190602002015160006040516040015260405160e060020a63ffffffff8616028152600160a060020a03938416600482015291909216602482015260448101919091526064016040805180830381600087803b151561099857600080fd5b6102c65a03f115156109a957600080fd5b505050604051805190602001805190508483815181106109c557fe5b9060200190602002018484815181106109da57fe5b60209081029091010191909152526001016108e7565b509097909650945050505050565b610a06610e0a565b610a0e610e0a565b610a16610e0a565b610a1e610e0a565b610a26610e0a565b610a2e610e0a565b610a36610e0a565b610a3e610e0a565b610a46610e0a565b610a4e610e0a565b60008b51604051805910610a5f5750595b908082528060200260200182016040525095508b51604051805910610a815750595b908082528060200260200182016040525094508b51604051805910610aa35750595b908082528060200260200182016040525093508b51604051805910610ac55750595b908082528060200260200182016040525092508b51604051805910610ae75750595b90808252806020026020018201604052509150600090505b8b51811015610cce578c600160a060020a031663cf8fee118d8381518110610b2357fe5b90602001906020020151600160006040516020015260405160e060020a63ffffffff8516028152600160a060020a03909216600483015215156024820152604401602060405180830381600087803b1515610b7d57600080fd5b6102c65a03f11515610b8e57600080fd5b50505060405180519050868281518110610ba457fe5b60209081029091010152600160a060020a038d1663cf8fee118d8381518110610bc957fe5b906020019060200201516000806040516020015260405160e060020a63ffffffff8516028152600160a060020a03909216600483015215156024820152604401602060405180830381600087803b1515610c2257600080fd5b6102c65a03f11515610c3357600080fd5b50505060405180519050858281518110610c4957fe5b60209081029091010152610c728d8d8381518110610c6357fe5b90602001906020020151610ce2565b868481518110610c7e57fe5b906020019060200201868581518110610c9357fe5b906020019060200201868681518110610ca857fe5b60209081029091010192909252600092830b830b90915291810b900b9052600101610aff565b50939b929a50909850965090945092505050565b60008060008060008060008089600160a060020a031663e4a2ac628a60006040516080015260405160e060020a63ffffffff8416028152600160a060020a039091166004820152602401608060405180830381600087803b1515610d4557600080fd5b6102c65a03f11515610d5657600080fd5b5050506040518051906020018051906020018051906020018051939850919650945090925050600160a060020a038a16638036d7578a60006040516020015260405160e060020a63ffffffff8416028152600160a060020a039091166004820152602401602060405180830381600087803b1515610dd357600080fd5b6102c65a03f11515610de457600080fd5b505050604051805160f860020a948590049c949093049a50919850919650505050505050565b602060405190810160405260008152905600a165627a7a723058205df2175583c7095a9215b3b0a758434a2092e1160ee1b0c3d66cacbf721d447a0029",
  "source": "pragma solidity ^0.4.18;\n\nimport \"../ERC20Interface.sol\";\nimport \"../KyberReserve.sol\";\nimport \"../KyberNetwork.sol\";\nimport \"../Utils.sol\";\nimport \"../ConversionRates.sol\";\n\ncontract Wrapper is Utils {\n\n    function getBalances(address reserve, ERC20[] tokens) public view returns(uint[]) {\n        uint[] memory result = new uint[](tokens.length);\n        for (uint i = 0; i < tokens.length; i++) {\n            uint balance = 0;\n            if (tokens[i] == ETH_TOKEN_ADDRESS) {\n                balance = reserve.balance;\n            } else {\n                balance = tokens[i].balanceOf(reserve);\n            }\n\n            result[i] = balance;\n        }\n\n        return result;\n    }\n\n    function getByteFromBytes14(bytes14 x, uint byteInd) public pure returns(byte) {\n        require(byteInd <= 13);\n        return x[byteInd];\n    }\n\n    function getInt8FromByte(bytes14 x, uint byteInd) public pure returns(int8) {\n        require(byteInd <= 13);\n        return int8(x[byteInd]);\n    }\n\n//    struct TokenRatesCompactData {\n//        bytes14 buy;  // change buy rate of token from baseBuyRate in 10 bps\n//        bytes14 sell; // change sell rate of token from baseSellRate in 10 bps\n//\n//        uint32 blockNumber;\n//    }\n//\n//    function getDataFromCompact(TokenRatesCompactData compact, uint byteInd) public pure\n//        returns(int8 buyByte, int8 sellByte, uint blockNumber)\n//    {\n//        blockNumber = uint(compact.blockNumber);\n////        return (compact.buy[byteInd], compact.sell[byteInd], uint(compact.blockNumber));\n//    }\n\n    function getCompactData(ConversionRates ratesContract, ERC20 token) internal view returns(int8,int8,uint) {\n        uint bulkIndex; uint index; byte buy; byte sell; uint updateBlock;\n        (bulkIndex, index, buy, sell) = ratesContract.getCompactData(token);\n        updateBlock = ratesContract.getRateUpdateBlock(token);\n\n        return (int8(buy), int8(sell), updateBlock);\n    }\n\n    function getTokenRates(ConversionRates ratesContract, ERC20[] tokenList)\n        public view\n        returns(uint[], uint[], int8[], int8[], uint[])\n    {\n        uint[] memory buyBases = new uint[](tokenList.length);\n        uint[] memory sellBases = new uint[](tokenList.length);\n        int8[] memory compactBuy = new int8[](tokenList.length);\n        int8[] memory compactSell = new int8[](tokenList.length);\n        uint[] memory updateBlock = new uint[](tokenList.length);\n\n        for (uint i = 0;  i < tokenList.length; i++) {\n            buyBases[i] = ratesContract.getBasicRate(tokenList[i], true);\n            sellBases[i] = ratesContract.getBasicRate(tokenList[i], false);\n\n            (compactBuy[i], compactSell[i], updateBlock[i]) = getCompactData(ratesContract, tokenList[i]);\n        }\n\n        return (buyBases, sellBases, compactBuy, compactSell, updateBlock);\n    }\n\n    function getTokenIndicies(ConversionRates ratesContract, ERC20[] tokenList) public view returns(uint[], uint[]) {\n        uint[] memory bulkIndices = new uint[](tokenList.length);\n        uint[] memory tokenIndexInBulk = new uint[](tokenList.length);\n\n        for (uint i = 0; i < tokenList.length; i++) {\n            uint bulkIndex; uint index; byte buy; byte sell;\n            (bulkIndex, index, buy, sell) = ratesContract.getCompactData(tokenList[i]);\n\n            bulkIndices[i] = bulkIndex;\n            tokenIndexInBulk[i] = index;\n        }\n\n        return (bulkIndices,tokenIndexInBulk);\n    }\n\n\n    function getExpectedRates( KyberNetwork network, ERC20[] srcs, ERC20[] dests, uint[] qty )\n        public view returns(uint[], uint[])\n    {\n        require( srcs.length == dests.length );\n        require( srcs.length == qty.length );\n\n        uint[] memory rates = new uint[](srcs.length);\n        uint[] memory slippage = new uint[](srcs.length);\n        for ( uint i = 0; i < srcs.length; i++ ) {\n            (rates[i],slippage[i]) = network.getExpectedRate(srcs[i],dests[i],qty[i]);\n        }\n\n        return (rates, slippage);\n    }\n}\n",
  "sourcePath": "/home/local/Projects/smart-contracts/contracts/mockContracts/Wrapper.sol",
  "compiler": {
    "name": "solc",
    "version": "0.4.18+commit.9cf6e910.Emscripten.clang"
  },
  "schemaVersion": "1.0.1",
  "updatedAt": "2018-07-23T10:39:10.112Z"
}